{
  "_format": "hh-sol-artifact-1",
  "contractName": "LifeForce",
  "sourceName": "contracts/LifeForce.sol",
  "abi": [
    {
      "inputs": [],
      "stateMutability": "nonpayable",
      "type": "constructor"
    },
    {
      "anonymous": false,
      "inputs": [
        {
          "indexed": true,
          "internalType": "address",
          "name": "owner",
          "type": "address"
        },
        {
          "indexed": true,
          "internalType": "address",
          "name": "approved",
          "type": "address"
        },
        {
          "indexed": true,
          "internalType": "uint256",
          "name": "tokenId",
          "type": "uint256"
        }
      ],
      "name": "Approval",
      "type": "event"
    },
    {
      "anonymous": false,
      "inputs": [
        {
          "indexed": true,
          "internalType": "address",
          "name": "owner",
          "type": "address"
        },
        {
          "indexed": true,
          "internalType": "address",
          "name": "operator",
          "type": "address"
        },
        {
          "indexed": false,
          "internalType": "bool",
          "name": "approved",
          "type": "bool"
        }
      ],
      "name": "ApprovalForAll",
      "type": "event"
    },
    {
      "anonymous": false,
      "inputs": [
        {
          "indexed": true,
          "internalType": "address",
          "name": "previousOwner",
          "type": "address"
        },
        {
          "indexed": true,
          "internalType": "address",
          "name": "newOwner",
          "type": "address"
        }
      ],
      "name": "OwnershipTransferred",
      "type": "event"
    },
    {
      "anonymous": false,
      "inputs": [
        {
          "indexed": false,
          "internalType": "address",
          "name": "account",
          "type": "address"
        }
      ],
      "name": "Paused",
      "type": "event"
    },
    {
      "anonymous": false,
      "inputs": [
        {
          "indexed": true,
          "internalType": "address",
          "name": "from",
          "type": "address"
        },
        {
          "indexed": true,
          "internalType": "address",
          "name": "to",
          "type": "address"
        },
        {
          "indexed": true,
          "internalType": "uint256",
          "name": "tokenId",
          "type": "uint256"
        }
      ],
      "name": "Transfer",
      "type": "event"
    },
    {
      "anonymous": false,
      "inputs": [
        {
          "indexed": false,
          "internalType": "address",
          "name": "account",
          "type": "address"
        }
      ],
      "name": "Unpaused",
      "type": "event"
    },
    {
      "inputs": [
        {
          "internalType": "uint256",
          "name": "",
          "type": "uint256"
        },
        {
          "internalType": "uint256",
          "name": "",
          "type": "uint256"
        }
      ],
      "name": "AnnualERData",
      "outputs": [
        {
          "internalType": "string",
          "name": "FarmerName",
          "type": "string"
        },
        {
          "internalType": "uint256",
          "name": "RegistrationNo",
          "type": "uint256"
        },
        {
          "internalType": "uint256",
          "name": "ERUnits",
          "type": "uint256"
        },
        {
          "internalType": "string",
          "name": "H2O",
          "type": "string"
        },
        {
          "internalType": "string",
          "name": "O2",
          "type": "string"
        },
        {
          "internalType": "string",
          "name": "CapturedCarbon",
          "type": "string"
        }
      ],
      "stateMutability": "view",
      "type": "function"
    },
    {
      "inputs": [
        {
          "internalType": "address",
          "name": "to",
          "type": "address"
        },
        {
          "internalType": "uint256",
          "name": "tokenId",
          "type": "uint256"
        }
      ],
      "name": "approve",
      "outputs": [],
      "stateMutability": "nonpayable",
      "type": "function"
    },
    {
      "inputs": [
        {
          "internalType": "address",
          "name": "owner",
          "type": "address"
        }
      ],
      "name": "balanceOf",
      "outputs": [
        {
          "internalType": "uint256",
          "name": "",
          "type": "uint256"
        }
      ],
      "stateMutability": "view",
      "type": "function"
    },
    {
      "inputs": [
        {
          "internalType": "uint256",
          "name": "tokenId",
          "type": "uint256"
        }
      ],
      "name": "burn",
      "outputs": [],
      "stateMutability": "nonpayable",
      "type": "function"
    },
    {
      "inputs": [
        {
          "internalType": "uint256",
          "name": "tokenId",
          "type": "uint256"
        }
      ],
      "name": "getApproved",
      "outputs": [
        {
          "internalType": "address",
          "name": "",
          "type": "address"
        }
      ],
      "stateMutability": "view",
      "type": "function"
    },
    {
      "inputs": [
        {
          "internalType": "uint256",
          "name": "investorID",
          "type": "uint256"
        },
        {
          "internalType": "uint256",
          "name": "servicingYear",
          "type": "uint256"
        }
      ],
      "name": "getERData",
      "outputs": [
        {
          "components": [
            {
              "internalType": "string",
              "name": "FarmerName",
              "type": "string"
            },
            {
              "internalType": "uint256",
              "name": "RegistrationNo",
              "type": "uint256"
            },
            {
              "internalType": "string[]",
              "name": "Species",
              "type": "string[]"
            },
            {
              "internalType": "uint256",
              "name": "ERUnits",
              "type": "uint256"
            },
            {
              "internalType": "string",
              "name": "H2O",
              "type": "string"
            },
            {
              "internalType": "string",
              "name": "O2",
              "type": "string"
            },
            {
              "internalType": "string",
              "name": "CapturedCarbon",
              "type": "string"
            }
          ],
          "internalType": "struct LifeForce.ERData",
          "name": "",
          "type": "tuple"
        }
      ],
      "stateMutability": "view",
      "type": "function"
    },
    {
      "inputs": [
        {
          "internalType": "address",
          "name": "owner",
          "type": "address"
        },
        {
          "internalType": "address",
          "name": "operator",
          "type": "address"
        }
      ],
      "name": "isApprovedForAll",
      "outputs": [
        {
          "internalType": "bool",
          "name": "",
          "type": "bool"
        }
      ],
      "stateMutability": "view",
      "type": "function"
    },
    {
      "inputs": [],
      "name": "name",
      "outputs": [
        {
          "internalType": "string",
          "name": "",
          "type": "string"
        }
      ],
      "stateMutability": "view",
      "type": "function"
    },
    {
      "inputs": [],
      "name": "owner",
      "outputs": [
        {
          "internalType": "address",
          "name": "",
          "type": "address"
        }
      ],
      "stateMutability": "view",
      "type": "function"
    },
    {
      "inputs": [
        {
          "internalType": "uint256",
          "name": "tokenId",
          "type": "uint256"
        }
      ],
      "name": "ownerOf",
      "outputs": [
        {
          "internalType": "address",
          "name": "",
          "type": "address"
        }
      ],
      "stateMutability": "view",
      "type": "function"
    },
    {
      "inputs": [],
      "name": "pause",
      "outputs": [],
      "stateMutability": "nonpayable",
      "type": "function"
    },
    {
      "inputs": [],
      "name": "paused",
      "outputs": [
        {
          "internalType": "bool",
          "name": "",
          "type": "bool"
        }
      ],
      "stateMutability": "view",
      "type": "function"
    },
    {
      "inputs": [],
      "name": "renounceOwnership",
      "outputs": [],
      "stateMutability": "nonpayable",
      "type": "function"
    },
    {
      "inputs": [
        {
          "internalType": "address",
          "name": "to",
          "type": "address"
        },
        {
          "internalType": "string",
          "name": "uri",
          "type": "string"
        },
        {
          "internalType": "uint256",
          "name": "tokenId",
          "type": "uint256"
        }
      ],
      "name": "safeMint",
      "outputs": [],
      "stateMutability": "nonpayable",
      "type": "function"
    },
    {
      "inputs": [
        {
          "internalType": "address",
          "name": "",
          "type": "address"
        },
        {
          "internalType": "address",
          "name": "to",
          "type": "address"
        },
        {
          "internalType": "uint256",
          "name": "tokenId",
          "type": "uint256"
        }
      ],
      "name": "safeTransferFrom",
      "outputs": [],
      "stateMutability": "nonpayable",
      "type": "function"
    },
    {
      "inputs": [
        {
          "internalType": "address",
          "name": "from",
          "type": "address"
        },
        {
          "internalType": "address",
          "name": "to",
          "type": "address"
        },
        {
          "internalType": "uint256",
          "name": "tokenId",
          "type": "uint256"
        },
        {
          "internalType": "bytes",
          "name": "data",
          "type": "bytes"
        }
      ],
      "name": "safeTransferFrom",
      "outputs": [],
      "stateMutability": "nonpayable",
      "type": "function"
    },
    {
      "inputs": [
        {
          "internalType": "address",
          "name": "operator",
          "type": "address"
        },
        {
          "internalType": "bool",
          "name": "approved",
          "type": "bool"
        }
      ],
      "name": "setApprovalForAll",
      "outputs": [],
      "stateMutability": "nonpayable",
      "type": "function"
    },
    {
      "inputs": [
        {
          "internalType": "uint256",
          "name": "investorID",
          "type": "uint256"
        },
        {
          "internalType": "string",
          "name": "farmerName",
          "type": "string"
        },
        {
          "internalType": "uint256",
          "name": "registrationNo",
          "type": "uint256"
        },
        {
          "internalType": "string[]",
          "name": "species",
          "type": "string[]"
        },
        {
          "internalType": "uint256",
          "name": "eRUnits",
          "type": "uint256"
        },
        {
          "internalType": "uint256",
          "name": "servicingYear",
          "type": "uint256"
        },
        {
          "internalType": "string",
          "name": "h2o",
          "type": "string"
        },
        {
          "internalType": "string",
          "name": "o2",
          "type": "string"
        },
        {
          "internalType": "string",
          "name": "capturedCarbon",
          "type": "string"
        }
      ],
      "name": "setERData",
      "outputs": [],
      "stateMutability": "nonpayable",
      "type": "function"
    },
    {
      "inputs": [
        {
          "internalType": "bytes4",
          "name": "interfaceId",
          "type": "bytes4"
        }
      ],
      "name": "supportsInterface",
      "outputs": [
        {
          "internalType": "bool",
          "name": "",
          "type": "bool"
        }
      ],
      "stateMutability": "view",
      "type": "function"
    },
    {
      "inputs": [],
      "name": "symbol",
      "outputs": [
        {
          "internalType": "string",
          "name": "",
          "type": "string"
        }
      ],
      "stateMutability": "view",
      "type": "function"
    },
    {
      "inputs": [
        {
          "internalType": "uint256",
          "name": "index",
          "type": "uint256"
        }
      ],
      "name": "tokenByIndex",
      "outputs": [
        {
          "internalType": "uint256",
          "name": "",
          "type": "uint256"
        }
      ],
      "stateMutability": "view",
      "type": "function"
    },
    {
      "inputs": [
        {
          "internalType": "address",
          "name": "owner",
          "type": "address"
        },
        {
          "internalType": "uint256",
          "name": "index",
          "type": "uint256"
        }
      ],
      "name": "tokenOfOwnerByIndex",
      "outputs": [
        {
          "internalType": "uint256",
          "name": "",
          "type": "uint256"
        }
      ],
      "stateMutability": "view",
      "type": "function"
    },
    {
      "inputs": [
        {
          "internalType": "uint256",
          "name": "tokenId",
          "type": "uint256"
        }
      ],
      "name": "tokenURI",
      "outputs": [
        {
          "internalType": "string",
          "name": "",
          "type": "string"
        }
      ],
      "stateMutability": "view",
      "type": "function"
    },
    {
      "inputs": [],
      "name": "totalSupply",
      "outputs": [
        {
          "internalType": "uint256",
          "name": "",
          "type": "uint256"
        }
      ],
      "stateMutability": "view",
      "type": "function"
    },
    {
      "inputs": [
        {
          "internalType": "address",
          "name": "from",
          "type": "address"
        },
        {
          "internalType": "address",
          "name": "to",
          "type": "address"
        },
        {
          "internalType": "uint256",
          "name": "tokenId",
          "type": "uint256"
        }
      ],
      "name": "transferFrom",
      "outputs": [],
      "stateMutability": "nonpayable",
      "type": "function"
    },
    {
      "inputs": [
        {
          "internalType": "address",
          "name": "newOwner",
          "type": "address"
        }
      ],
      "name": "transferOwnership",
      "outputs": [],
      "stateMutability": "nonpayable",
      "type": "function"
    },
    {
      "inputs": [],
      "name": "unpause",
      "outputs": [],
      "stateMutability": "nonpayable",
      "type": "function"
    }
  ],
  "bytecode": "0x60806040523480156200001157600080fd5b50604051806040016040528060098152602001684c696665466f72636560b81b815250604051806040016040528060048152602001634c49464560e01b81525081600090816200006291906200018e565b5060016200007182826200018e565b5050600b805460ff191690555062000089336200008f565b6200025a565b600b80546001600160a01b03838116610100818102610100600160a81b031985161790945560405193909204169182907f8be0079c531659141344cd1fd0a4f28419497f9722a3daafe3b4186f6b6457e090600090a35050565b634e487b7160e01b600052604160045260246000fd5b600181811c908216806200011457607f821691505b6020821081036200013557634e487b7160e01b600052602260045260246000fd5b50919050565b601f8211156200018957600081815260208120601f850160051c81016020861015620001645750805b601f850160051c820191505b81811015620001855782815560010162000170565b5050505b505050565b81516001600160401b03811115620001aa57620001aa620000e9565b620001c281620001bb8454620000ff565b846200013b565b602080601f831160018114620001fa5760008415620001e15750858301515b600019600386901b1c1916600185901b17855562000185565b600085815260208120601f198616915b828110156200022b578886015182559484019460019091019084016200020a565b50858210156200024a5787850151600019600388901b60f8161c191681555b5050505050600190811b01905550565b612bae806200026a6000396000f3fe608060405234801561001057600080fd5b50600436106101a95760003560e01c80635c975abb116100f9578063a22cb46511610097578063c87b56dd11610071578063c87b56dd14610374578063e985e9c514610387578063e9e5f757146103c3578063f2fde38b146103e357600080fd5b8063a22cb4651461033b578063b88d4fde1461034e578063c772745a1461036157600080fd5b8063715018a6116100d3578063715018a61461030d5780638456cb59146103155780638da5cb5b1461031d57806395d89b411461033357600080fd5b80635c975abb146102dc5780636352211e146102e757806370a08231146102fa57600080fd5b80632f745c591161016657806342842e0e1161014057806342842e0e1461029057806342966c68146102a35780634f6ccce7146102b657806355134df3146102c957600080fd5b80632f745c59146102505780633c69b10c146102635780633f4ba83a1461028857600080fd5b806301ffc9a7146101ae57806306fdde03146101d6578063081812fc146101eb578063095ea7b31461021657806318160ddd1461022b57806323b872dd1461023d575b600080fd5b6101c16101bc366004612215565b6103f6565b60405190151581526020015b60405180910390f35b6101de610407565b6040516101cd9190612282565b6101fe6101f9366004612295565b610499565b6040516001600160a01b0390911681526020016101cd565b6102296102243660046122ca565b6104c0565b005b6008545b6040519081526020016101cd565b61022961024b3660046122f4565b6105da565b61022f61025e3660046122ca565b61060c565b610276610271366004612330565b6106a2565b6040516101cd96959493929190612352565b610229610901565b61022961029e3660046122f4565b610913565b6102296102b1366004612295565b61091e565b61022f6102c4366004612295565b61094f565b6102296102d7366004612516565b6109e2565b600b5460ff166101c1565b6101fe6102f5366004612295565b610ac3565b61022f61030836600461260f565b610b23565b610229610ba9565b610229610bbb565b600b5461010090046001600160a01b03166101fe565b6101de610bcb565b61022961034936600461262a565b610bda565b61022961035c366004612666565b610be9565b61022961036f3660046126e2565b610c21565b6101de610382366004612295565b610c3d565b6101c1610395366004612739565b6001600160a01b03918216600090815260056020908152604080832093909416825291909152205460ff1690565b6103d66103d1366004612330565b610c48565b6040516101cd919061276c565b6102296103f136600461260f565b610fe8565b60006104018261105e565b92915050565b6060600080546104169061285b565b80601f01602080910402602001604051908101604052809291908181526020018280546104429061285b565b801561048f5780601f106104645761010080835404028352916020019161048f565b820191906000526020600020905b81548152906001019060200180831161047257829003601f168201915b5050505050905090565b60006104a482611083565b506000908152600460205260409020546001600160a01b031690565b60006104cb82610ac3565b9050806001600160a01b0316836001600160a01b03160361053d5760405162461bcd60e51b815260206004820152602160248201527f4552433732313a20617070726f76616c20746f2063757272656e74206f776e656044820152603960f91b60648201526084015b60405180910390fd5b336001600160a01b038216148061055957506105598133610395565b6105cb5760405162461bcd60e51b815260206004820152603d60248201527f4552433732313a20617070726f76652063616c6c6572206973206e6f7420746f60448201527f6b656e206f776e6572206f7220617070726f76656420666f7220616c6c0000006064820152608401610534565b6105d583836110e2565b505050565b6105e5335b82611150565b6106015760405162461bcd60e51b815260040161053490612895565b6105d58383836111cf565b600061061783610b23565b82106106795760405162461bcd60e51b815260206004820152602b60248201527f455243373231456e756d657261626c653a206f776e657220696e646578206f7560448201526a74206f6620626f756e647360a81b6064820152608401610534565b506001600160a01b03919091166000908152600660209081526040808320938352929052205490565b600c6020908152600092835260408084209091529082529020805481906106c89061285b565b80601f01602080910402602001604051908101604052809291908181526020018280546106f49061285b565b80156107415780601f1061071657610100808354040283529160200191610741565b820191906000526020600020905b81548152906001019060200180831161072457829003601f168201915b5050505050908060010154908060030154908060040180546107629061285b565b80601f016020809104026020016040519081016040528092919081815260200182805461078e9061285b565b80156107db5780601f106107b0576101008083540402835291602001916107db565b820191906000526020600020905b8154815290600101906020018083116107be57829003601f168201915b5050505050908060050180546107f09061285b565b80601f016020809104026020016040519081016040528092919081815260200182805461081c9061285b565b80156108695780601f1061083e57610100808354040283529160200191610869565b820191906000526020600020905b81548152906001019060200180831161084c57829003601f168201915b50505050509080600601805461087e9061285b565b80601f01602080910402602001604051908101604052809291908181526020018280546108aa9061285b565b80156108f75780601f106108cc576101008083540402835291602001916108f7565b820191906000526020600020905b8154815290600101906020018083116108da57829003601f168201915b5050505050905086565b610909611340565b6109116113a0565b565b6105d53383836113f2565b610927336105df565b6109435760405162461bcd60e51b815260040161053490612895565b61094c8161140d565b50565b600061095a60085490565b82106109bd5760405162461bcd60e51b815260206004820152602c60248201527f455243373231456e756d657261626c653a20676c6f62616c20696e646578206f60448201526b7574206f6620626f756e647360a01b6064820152608401610534565b600882815481106109d0576109d06128e2565b90600052602060002001549050919050565b6109ea611340565b6040805160e08101825289815260208082018a9052818301899052606082018890526080820186905260a0820185905260c0820184905260008c8152600c82528381208882529091529190912081518291908190610a489082612946565b50602082810151600183015560408301518051610a6b926002850192019061213d565b506060820151600382015560808201516004820190610a8a9082612946565b5060a08201516005820190610a9f9082612946565b5060c08201516006820190610ab49082612946565b50505050505050505050505050565b6000818152600260205260408120546001600160a01b0316806104015760405162461bcd60e51b8152602060048201526018602482015277115490cdcc8c4e881a5b9d985b1a59081d1bdad95b88125160421b6044820152606401610534565b60006001600160a01b038216610b8d5760405162461bcd60e51b815260206004820152602960248201527f4552433732313a2061646472657373207a65726f206973206e6f7420612076616044820152683634b21037bbb732b960b91b6064820152608401610534565b506001600160a01b031660009081526003602052604090205490565b610bb1611340565b6109116000611416565b610bc3611340565b610911611470565b6060600180546104169061285b565b610be53383836114ad565b5050565b610bf33383611150565b610c0f5760405162461bcd60e51b815260040161053490612895565b610c1b8484848461157b565b50505050565b610c29611340565b610c3383826115ae565b6105d581836115c8565b60606104018261165b565b610c886040518060e00160405280606081526020016000815260200160608152602001600081526020016060815260200160608152602001606081525090565b6000838152600c6020908152604080832085845290915290819020815160e08101909252805482908290610cbb9061285b565b80601f0160208091040260200160405190810160405280929190818152602001828054610ce79061285b565b8015610d345780601f10610d0957610100808354040283529160200191610d34565b820191906000526020600020905b815481529060010190602001808311610d1757829003601f168201915b505050505081526020016001820154815260200160028201805480602002602001604051908101604052809291908181526020016000905b82821015610e18578382906000526020600020018054610d8b9061285b565b80601f0160208091040260200160405190810160405280929190818152602001828054610db79061285b565b8015610e045780601f10610dd957610100808354040283529160200191610e04565b820191906000526020600020905b815481529060010190602001808311610de757829003601f168201915b505050505081526020019060010190610d6c565b50505050815260200160038201548152602001600482018054610e3a9061285b565b80601f0160208091040260200160405190810160405280929190818152602001828054610e669061285b565b8015610eb35780601f10610e8857610100808354040283529160200191610eb3565b820191906000526020600020905b815481529060010190602001808311610e9657829003601f168201915b50505050508152602001600582018054610ecc9061285b565b80601f0160208091040260200160405190810160405280929190818152602001828054610ef89061285b565b8015610f455780601f10610f1a57610100808354040283529160200191610f45565b820191906000526020600020905b815481529060010190602001808311610f2857829003601f168201915b50505050508152602001600682018054610f5e9061285b565b80601f0160208091040260200160405190810160405280929190818152602001828054610f8a9061285b565b8015610fd75780601f10610fac57610100808354040283529160200191610fd7565b820191906000526020600020905b815481529060010190602001808311610fba57829003601f168201915b505050505081525050905092915050565b610ff0611340565b6001600160a01b0381166110555760405162461bcd60e51b815260206004820152602660248201527f4f776e61626c653a206e6577206f776e657220697320746865207a65726f206160448201526564647265737360d01b6064820152608401610534565b61094c81611416565b60006001600160e01b0319821663780e9d6360e01b1480610401575061040182611763565b6000818152600260205260409020546001600160a01b031661094c5760405162461bcd60e51b8152602060048201526018602482015277115490cdcc8c4e881a5b9d985b1a59081d1bdad95b88125160421b6044820152606401610534565b600081815260046020526040902080546001600160a01b0319166001600160a01b038416908117909155819061111782610ac3565b6001600160a01b03167f8c5be1e5ebec7d5bd14f71427d1e84f3dd0314c0f7b2291e5b200ac8c7c3b92560405160405180910390a45050565b60008061115c83610ac3565b9050806001600160a01b0316846001600160a01b031614806111a357506001600160a01b0380821660009081526005602090815260408083209388168352929052205460ff165b806111c75750836001600160a01b03166111bc84610499565b6001600160a01b0316145b949350505050565b826001600160a01b03166111e282610ac3565b6001600160a01b0316146112085760405162461bcd60e51b815260040161053490612a06565b6001600160a01b03821661126a5760405162461bcd60e51b8152602060048201526024808201527f4552433732313a207472616e7366657220746f20746865207a65726f206164646044820152637265737360e01b6064820152608401610534565b61127783838360016117b3565b826001600160a01b031661128a82610ac3565b6001600160a01b0316146112b05760405162461bcd60e51b815260040161053490612a06565b600081815260046020908152604080832080546001600160a01b03199081169091556001600160a01b0387811680865260038552838620805460001901905590871680865283862080546001019055868652600290945282852080549092168417909155905184937fddf252ad1be2c89b69c2b068fc378daa952ba7f163c4a11628f55a4df523b3ef91a4505050565b600b546001600160a01b036101009091041633146109115760405162461bcd60e51b815260206004820181905260248201527f4f776e61626c653a2063616c6c6572206973206e6f7420746865206f776e65726044820152606401610534565b6113a86117c7565b600b805460ff191690557f5db9ee0a495bf2e6ff9c91a7834c1ba4fdd244a5e8aa4e537bd38aeae4b073aa335b6040516001600160a01b03909116815260200160405180910390a1565b6105d583838360405180602001604052806000815250610be9565b61094c81611810565b600b80546001600160a01b03838116610100818102610100600160a81b031985161790945560405193909204169182907f8be0079c531659141344cd1fd0a4f28419497f9722a3daafe3b4186f6b6457e090600090a35050565b611478611850565b600b805460ff191660011790557f62e78cea01bee320cd4e420270b5ea74000d11b0c9f74754ebdbfc544b05a2586113d53390565b816001600160a01b0316836001600160a01b03160361150e5760405162461bcd60e51b815260206004820152601960248201527f4552433732313a20617070726f766520746f2063616c6c6572000000000000006044820152606401610534565b6001600160a01b03838116600081815260056020908152604080832094871680845294825291829020805460ff191686151590811790915591519182527f17307eab39ab6107e8899845ad3d59bd9653f200f220920489ca2b5937696c31910160405180910390a3505050565b6115868484846111cf565b61159284848484611896565b610c1b5760405162461bcd60e51b815260040161053490612a4b565b610be5828260405180602001604052806000815250611997565b6000828152600260205260409020546001600160a01b03166116435760405162461bcd60e51b815260206004820152602e60248201527f45524337323155524953746f726167653a2055524920736574206f66206e6f6e60448201526d32bc34b9ba32b73a103a37b5b2b760911b6064820152608401610534565b6000828152600a602052604090206105d58282612946565b606061166682611083565b6000828152600a60205260408120805461167f9061285b565b80601f01602080910402602001604051908101604052809291908181526020018280546116ab9061285b565b80156116f85780601f106116cd576101008083540402835291602001916116f8565b820191906000526020600020905b8154815290600101906020018083116116db57829003601f168201915b50505050509050600061171660408051602081019091526000815290565b90508051600003611728575092915050565b81511561175a578082604051602001611742929190612a9d565b60405160208183030381529060405292505050919050565b6111c7846119ca565b60006001600160e01b031982166380ac58cd60e01b148061179457506001600160e01b03198216635b5e139f60e01b145b8061040157506301ffc9a760e01b6001600160e01b0319831614610401565b6117bb611850565b610c1b84848484611a3e565b600b5460ff166109115760405162461bcd60e51b815260206004820152601460248201527314185d5cd8589b194e881b9bdd081c185d5cd95960621b6044820152606401610534565b61181981611b7e565b6000818152600a6020526040902080546118329061285b565b15905061094c576000818152600a6020526040812061094c91612193565b600b5460ff16156109115760405162461bcd60e51b815260206004820152601060248201526f14185d5cd8589b194e881c185d5cd95960821b6044820152606401610534565b60006001600160a01b0384163b1561198c57604051630a85bd0160e11b81526001600160a01b0385169063150b7a02906118da903390899088908890600401612acc565b6020604051808303816000875af1925050508015611915575060408051601f3d908101601f1916820190925261191291810190612b09565b60015b611972573d808015611943576040519150601f19603f3d011682016040523d82523d6000602084013e611948565b606091505b50805160000361196a5760405162461bcd60e51b815260040161053490612a4b565b805181602001fd5b6001600160e01b031916630a85bd0160e11b1490506111c7565b506001949350505050565b6119a18383611c21565b6119ae6000848484611896565b6105d55760405162461bcd60e51b815260040161053490612a4b565b60606119d582611083565b60006119ec60408051602081019091526000815290565b90506000815111611a0c5760405180602001604052806000815250611a37565b80611a1684611dba565b604051602001611a27929190612a9d565b6040516020818303038152906040525b9392505050565b611a4a84848484611e4d565b6001811115611ab95760405162461bcd60e51b815260206004820152603560248201527f455243373231456e756d657261626c653a20636f6e7365637574697665207472604482015274185b9cd9995c9cc81b9bdd081cdd5c1c1bdc9d1959605a1b6064820152608401610534565b816001600160a01b038516611b1557611b1081600880546000838152600960205260408120829055600182018355919091527ff3f7a9fe364faab93b216da50a3214154f22a0a2b415b23a84c8169e8b636ee30155565b611b38565b836001600160a01b0316856001600160a01b031614611b3857611b388582611ed5565b6001600160a01b038416611b5457611b4f81611f72565b611b77565b846001600160a01b0316846001600160a01b031614611b7757611b778482612021565b5050505050565b6000611b8982610ac3565b9050611b998160008460016117b3565b611ba282610ac3565b600083815260046020908152604080832080546001600160a01b03199081169091556001600160a01b0385168085526003845282852080546000190190558785526002909352818420805490911690555192935084927fddf252ad1be2c89b69c2b068fc378daa952ba7f163c4a11628f55a4df523b3ef908390a45050565b6001600160a01b038216611c775760405162461bcd60e51b815260206004820181905260248201527f4552433732313a206d696e7420746f20746865207a65726f20616464726573736044820152606401610534565b6000818152600260205260409020546001600160a01b031615611cdc5760405162461bcd60e51b815260206004820152601c60248201527f4552433732313a20746f6b656e20616c7265616479206d696e746564000000006044820152606401610534565b611cea6000838360016117b3565b6000818152600260205260409020546001600160a01b031615611d4f5760405162461bcd60e51b815260206004820152601c60248201527f4552433732313a20746f6b656e20616c7265616479206d696e746564000000006044820152606401610534565b6001600160a01b038216600081815260036020908152604080832080546001019055848352600290915280822080546001600160a01b0319168417905551839291907fddf252ad1be2c89b69c2b068fc378daa952ba7f163c4a11628f55a4df523b3ef908290a45050565b60606000611dc783612065565b600101905060008167ffffffffffffffff811115611de757611de76123b8565b6040519080825280601f01601f191660200182016040528015611e11576020820181803683370190505b5090508181016020015b600019016f181899199a1a9b1b9c1cb0b131b232b360811b600a86061a8153600a8504945084611e1b57509392505050565b6001811115610c1b576001600160a01b03841615611e93576001600160a01b03841660009081526003602052604081208054839290611e8d908490612b3c565b90915550505b6001600160a01b03831615610c1b576001600160a01b03831660009081526003602052604081208054839290611eca908490612b4f565b909155505050505050565b60006001611ee284610b23565b611eec9190612b3c565b600083815260076020526040902054909150808214611f3f576001600160a01b03841660009081526006602090815260408083208584528252808320548484528184208190558352600790915290208190555b5060009182526007602090815260408084208490556001600160a01b039094168352600681528383209183525290812055565b600854600090611f8490600190612b3c565b60008381526009602052604081205460088054939450909284908110611fac57611fac6128e2565b906000526020600020015490508060088381548110611fcd57611fcd6128e2565b600091825260208083209091019290925582815260099091526040808220849055858252812055600880548061200557612005612b62565b6001900381819060005260206000200160009055905550505050565b600061202c83610b23565b6001600160a01b039093166000908152600660209081526040808320868452825280832085905593825260079052919091209190915550565b60008072184f03e93ff9f4daa797ed6e38ed64bf6a1f0160401b83106120a45772184f03e93ff9f4daa797ed6e38ed64bf6a1f0160401b830492506040015b6d04ee2d6d415b85acef810000000083106120d0576d04ee2d6d415b85acef8100000000830492506020015b662386f26fc1000083106120ee57662386f26fc10000830492506010015b6305f5e1008310612106576305f5e100830492506008015b612710831061211a57612710830492506004015b6064831061212c576064830492506002015b600a83106104015760010192915050565b828054828255906000526020600020908101928215612183579160200282015b8281111561218357825182906121739082612946565b509160200191906001019061215d565b5061218f9291506121cd565b5090565b50805461219f9061285b565b6000825580601f106121af575050565b601f01602090049060005260206000209081019061094c91906121ea565b8082111561218f5760006121e18282612193565b506001016121cd565b5b8082111561218f57600081556001016121eb565b6001600160e01b03198116811461094c57600080fd5b60006020828403121561222757600080fd5b8135611a37816121ff565b60005b8381101561224d578181015183820152602001612235565b50506000910152565b6000815180845261226e816020860160208601612232565b601f01601f19169290920160200192915050565b602081526000611a376020830184612256565b6000602082840312156122a757600080fd5b5035919050565b80356001600160a01b03811681146122c557600080fd5b919050565b600080604083850312156122dd57600080fd5b6122e6836122ae565b946020939093013593505050565b60008060006060848603121561230957600080fd5b612312846122ae565b9250612320602085016122ae565b9150604084013590509250925092565b6000806040838503121561234357600080fd5b50508035926020909101359150565b60c08152600061236560c0830189612256565b87602084015286604084015282810360608401526123838187612256565b905082810360808401526123978186612256565b905082810360a08401526123ab8185612256565b9998505050505050505050565b634e487b7160e01b600052604160045260246000fd5b604051601f8201601f1916810167ffffffffffffffff811182821017156123f7576123f76123b8565b604052919050565b600067ffffffffffffffff831115612419576124196123b8565b61242c601f8401601f19166020016123ce565b905082815283838301111561244057600080fd5b828260208301376000602084830101529392505050565b600082601f83011261246857600080fd5b611a37838335602085016123ff565b600082601f83011261248857600080fd5b8135602067ffffffffffffffff808311156124a5576124a56123b8565b8260051b6124b48382016123ce565b93845285810183019383810190888611156124ce57600080fd5b84880192505b8583101561250a578235848111156124ec5760008081fd5b6124fa8a87838c0101612457565b83525091840191908401906124d4565b98975050505050505050565b60008060008060008060008060006101208a8c03121561253557600080fd5b8935985060208a013567ffffffffffffffff8082111561255457600080fd5b6125608d838e01612457565b995060408c0135985060608c013591508082111561257d57600080fd5b6125898d838e01612477565b975060808c0135965060a08c0135955060c08c01359150808211156125ad57600080fd5b6125b98d838e01612457565b945060e08c01359150808211156125cf57600080fd5b6125db8d838e01612457565b93506101008c01359150808211156125f257600080fd5b506125ff8c828d01612457565b9150509295985092959850929598565b60006020828403121561262157600080fd5b611a37826122ae565b6000806040838503121561263d57600080fd5b612646836122ae565b91506020830135801515811461265b57600080fd5b809150509250929050565b6000806000806080858703121561267c57600080fd5b612685856122ae565b9350612693602086016122ae565b925060408501359150606085013567ffffffffffffffff8111156126b657600080fd5b8501601f810187136126c757600080fd5b6126d6878235602084016123ff565b91505092959194509250565b6000806000606084860312156126f757600080fd5b612700846122ae565b9250602084013567ffffffffffffffff81111561271c57600080fd5b61272886828701612457565b925050604084013590509250925092565b6000806040838503121561274c57600080fd5b612755836122ae565b9150612763602084016122ae565b90509250929050565b60006020808352835160e082850152612789610100850182612256565b90508185015160408501526040850151601f19808684030160608701528282518085528585019150858160051b860101868501945060005b828110156127ed57848783030184526127db828751612256565b958801959388019391506001016127c1565b5060608a015160808a015260808a01519650838982030160a08a01526128138188612256565b965050505060a08701519250808685030160c08701526128338484612256565b935060c08701519250808685030160e087015250506128528282612256565b95945050505050565b600181811c9082168061286f57607f821691505b60208210810361288f57634e487b7160e01b600052602260045260246000fd5b50919050565b6020808252602d908201527f4552433732313a2063616c6c6572206973206e6f7420746f6b656e206f776e6560408201526c1c881bdc88185c1c1c9bdd9959609a1b606082015260800190565b634e487b7160e01b600052603260045260246000fd5b601f8211156105d557600081815260208120601f850160051c8101602086101561291f5750805b601f850160051c820191505b8181101561293e5782815560010161292b565b505050505050565b815167ffffffffffffffff811115612960576129606123b8565b6129748161296e845461285b565b846128f8565b602080601f8311600181146129a957600084156129915750858301515b600019600386901b1c1916600185901b17855561293e565b600085815260208120601f198616915b828110156129d8578886015182559484019460019091019084016129b9565b50858210156129f65787850151600019600388901b60f8161c191681555b5050505050600190811b01905550565b60208082526025908201527f4552433732313a207472616e736665722066726f6d20696e636f72726563742060408201526437bbb732b960d91b606082015260800190565b60208082526032908201527f4552433732313a207472616e7366657220746f206e6f6e20455243373231526560408201527131b2b4bb32b91034b6b83632b6b2b73a32b960711b606082015260800190565b60008351612aaf818460208801612232565b835190830190612ac3818360208801612232565b01949350505050565b6001600160a01b0385811682528416602082015260408101839052608060608201819052600090612aff90830184612256565b9695505050505050565b600060208284031215612b1b57600080fd5b8151611a37816121ff565b634e487b7160e01b600052601160045260246000fd5b8181038181111561040157610401612b26565b8082018082111561040157610401612b26565b634e487b7160e01b600052603160045260246000fdfea264697066735822122013de559a5c0f7a7ae88710d2be22d4b09b0d7b3dde7152fc5401bd17a75c2c5564736f6c63430008110033",
  "linkReferences": {},
  "deployedLinkReferences": {}
}